{
  "contractName": "People",
  "abi": [
    {
      "anonymous": false,
      "inputs": [
        {
          "indexed": false,
          "internalType": "string",
          "name": "name",
          "type": "string"
        },
        {
          "indexed": false,
          "internalType": "bool",
          "name": "senior",
          "type": "bool"
        }
      ],
      "name": "personCreated",
      "type": "event"
    },
    {
      "anonymous": false,
      "inputs": [
        {
          "indexed": false,
          "internalType": "string",
          "name": "name",
          "type": "string"
        },
        {
          "indexed": false,
          "internalType": "bool",
          "name": "senior",
          "type": "bool"
        },
        {
          "indexed": false,
          "internalType": "address",
          "name": "deletedBy",
          "type": "address"
        }
      ],
      "name": "personDeleted",
      "type": "event"
    },
    {
      "inputs": [],
      "name": "owner",
      "outputs": [
        {
          "internalType": "address",
          "name": "",
          "type": "address"
        }
      ],
      "stateMutability": "view",
      "type": "function",
      "constant": true
    },
    {
      "inputs": [
        {
          "internalType": "string",
          "name": "name",
          "type": "string"
        },
        {
          "internalType": "uint256",
          "name": "age",
          "type": "uint256"
        },
        {
          "internalType": "uint256",
          "name": "height",
          "type": "uint256"
        }
      ],
      "name": "createPerson",
      "outputs": [],
      "stateMutability": "payable",
      "type": "function",
      "payable": true
    },
    {
      "inputs": [
        {
          "internalType": "uint256",
          "name": "idx",
          "type": "uint256"
        }
      ],
      "name": "getCreator",
      "outputs": [
        {
          "internalType": "address",
          "name": "",
          "type": "address"
        }
      ],
      "stateMutability": "view",
      "type": "function",
      "constant": true
    },
    {
      "inputs": [
        {
          "internalType": "address",
          "name": "person",
          "type": "address"
        }
      ],
      "name": "deletePerson",
      "outputs": [],
      "stateMutability": "nonpayable",
      "type": "function"
    },
    {
      "inputs": [],
      "name": "getPerson",
      "outputs": [
        {
          "internalType": "string",
          "name": "name",
          "type": "string"
        },
        {
          "internalType": "uint256",
          "name": "age",
          "type": "uint256"
        },
        {
          "internalType": "uint256",
          "name": "height",
          "type": "uint256"
        },
        {
          "internalType": "bool",
          "name": "senior",
          "type": "bool"
        }
      ],
      "stateMutability": "view",
      "type": "function",
      "constant": true
    },
    {
      "inputs": [],
      "name": "withdrawlAll",
      "outputs": [
        {
          "internalType": "uint256",
          "name": "",
          "type": "uint256"
        }
      ],
      "stateMutability": "nonpayable",
      "type": "function"
    }
  ],
  "bytecode": "0x608060405234801561001057600080fd5b50336000806101000a81548173ffffffffffffffffffffffffffffffffffffffff021916908373ffffffffffffffffffffffffffffffffffffffff160217905550610f5a806100606000396000f3fe6080604052600436106100555760003560e01c8063102cda4a1461005a5780633ba94981146100ab5780638da5cb5b146100d65780638ec4dc9514610117578063d48e638a146101be578063fce82d7114610223575b600080fd5b34801561006657600080fd5b506100a96004803603602081101561007d57600080fd5b81019080803573ffffffffffffffffffffffffffffffffffffffff1690602001909291905050506102f2565b005b3480156100b757600080fd5b506100c0610630565b6040518082815260200191505060405180910390f35b3480156100e257600080fd5b506100eb6106e8565b604051808273ffffffffffffffffffffffffffffffffffffffff16815260200191505060405180910390f35b34801561012357600080fd5b5061012c61070c565b60405180806020018581526020018481526020018315158152602001828103825286818151815260200191508051906020019080838360005b83811015610180578082015181840152602081019050610165565b50505050905090810190601f1680156101ad5780820380516001836020036101000a031916815260200191505b509550505050505060405180910390f35b3480156101ca57600080fd5b506101f7600480360360208110156101e157600080fd5b81019080803590602001909291905050506108d5565b604051808273ffffffffffffffffffffffffffffffffffffffff16815260200191505060405180910390f35b6102f06004803603606081101561023957600080fd5b810190808035906020019064010000000081111561025657600080fd5b82018360208201111561026857600080fd5b8035906020019184600183028401116401000000008311171561028a57600080fd5b91908080601f016020809104026020016040519081016040528093929190818152602001838380828437600081840152601f19601f820116905080830192505050505050509192919290803590602001909291908035906020019092919050505061096f565b005b60008054906101000a900473ffffffffffffffffffffffffffffffffffffffff1673ffffffffffffffffffffffffffffffffffffffff163373ffffffffffffffffffffffffffffffffffffffff161461034a57600080fd5b6000600260008373ffffffffffffffffffffffffffffffffffffffff1673ffffffffffffffffffffffffffffffffffffffff16815260200190815260200160002060040160009054906101000a900460ff1690506060600260008473ffffffffffffffffffffffffffffffffffffffff1673ffffffffffffffffffffffffffffffffffffffff1681526020019081526020016000206001018054600181600116156101000203166002900480601f0160208091040260200160405190810160405280929190818152602001828054600181600116156101000203166002900480156104765780601f1061044b57610100808354040283529160200191610476565b820191906000526020600020905b81548152906001019060200180831161045957829003601f168201915b50505050509050600260008473ffffffffffffffffffffffffffffffffffffffff1673ffffffffffffffffffffffffffffffffffffffff1681526020019081526020016000206000808201600090556001820160006104d59190610e00565b600282016000905560038201600090556004820160006101000a81549060ff021916905550506000600260008573ffffffffffffffffffffffffffffffffffffffff1673ffffffffffffffffffffffffffffffffffffffff168152602001908152602001600020600201541461054757fe5b7fce505ea5e5a360ed968bacfdf5b52e168dfe627776422d678cb12143ebe187c8818360008054906101000a900473ffffffffffffffffffffffffffffffffffffffff16604051808060200184151581526020018373ffffffffffffffffffffffffffffffffffffffff168152602001828103825285818151815260200191508051906020019080838360005b838110156105ef5780820151818401526020810190506105d4565b50505050905090810190601f16801561061c5780820380516001836020036101000a031916815260200191505b5094505050505060405180910390a1505050565b60008060009054906101000a900473ffffffffffffffffffffffffffffffffffffffff1673ffffffffffffffffffffffffffffffffffffffff163373ffffffffffffffffffffffffffffffffffffffff161461068b57600080fd5b6000600154905060006001819055503373ffffffffffffffffffffffffffffffffffffffff166108fc829081150290604051600060405180830381858888f193505050501580156106e0573d6000803e3d6000fd5b508091505090565b60008054906101000a900473ffffffffffffffffffffffffffffffffffffffff1681565b60606000806000600260003373ffffffffffffffffffffffffffffffffffffffff1673ffffffffffffffffffffffffffffffffffffffff168152602001908152602001600020600101600260003373ffffffffffffffffffffffffffffffffffffffff1673ffffffffffffffffffffffffffffffffffffffff16815260200190815260200160002060020154600260003373ffffffffffffffffffffffffffffffffffffffff1673ffffffffffffffffffffffffffffffffffffffff16815260200190815260200160002060030154600260003373ffffffffffffffffffffffffffffffffffffffff1673ffffffffffffffffffffffffffffffffffffffff16815260200190815260200160002060040160009054906101000a900460ff16838054600181600116156101000203166002900480601f0160208091040260200160405190810160405280929190818152602001828054600181600116156101000203166002900480156108c05780601f10610895576101008083540402835291602001916108c0565b820191906000526020600020905b8154815290600101906020018083116108a357829003601f168201915b50505050509350935093509350935090919293565b60008060009054906101000a900473ffffffffffffffffffffffffffffffffffffffff1673ffffffffffffffffffffffffffffffffffffffff163373ffffffffffffffffffffffffffffffffffffffff161461093057600080fd5b6003828154811061093d57fe5b9060005260206000200160009054906101000a900473ffffffffffffffffffffffffffffffffffffffff169050919050565b6096821061097c57600080fd5b670de0b6b3a764000034101561099157600080fd5b346001600082825401925050819055506109a9610e48565b838160200181905250828160400181815250508181606001818152505060418310156109d65760006109d9565b60015b8160800190151590811515815250506109f181610d59565b6003339080600181540180825580915050600190039060005260206000200160009091909190916101000a81548173ffffffffffffffffffffffffffffffffffffffff021916908373ffffffffffffffffffffffffffffffffffffffff16021790555080602001518160400151826060015183608001516040516020018085805190602001908083835b60208310610a9e5780518252602082019150602081019050602083039250610a7b565b6001836020036101000a03801982511681845116808217855250505050505090500184815260200183815260200182151560f81b815260010194505050505060405160208183030381529060405280519060200120600260003373ffffffffffffffffffffffffffffffffffffffff1673ffffffffffffffffffffffffffffffffffffffff168152602001908152602001600020600101600260003373ffffffffffffffffffffffffffffffffffffffff1673ffffffffffffffffffffffffffffffffffffffff16815260200190815260200160002060020154600260003373ffffffffffffffffffffffffffffffffffffffff1673ffffffffffffffffffffffffffffffffffffffff16815260200190815260200160002060030154600260003373ffffffffffffffffffffffffffffffffffffffff1673ffffffffffffffffffffffffffffffffffffffff16815260200190815260200160002060040160009054906101000a900460ff166040516020018085805460018160011615610100020316600290048015610c695780601f10610c47576101008083540402835291820191610c69565b820191906000526020600020905b815481529060010190602001808311610c55575b505084815260200183815260200182151560f81b81526001019450505050506040516020818303038152906040528051906020012014610ca557fe5b7f483a95908cf8068144f424e2adef59ae102592afd2706bb3d37a620b6a2304e78160200151826080015160405180806020018315158152602001828103825284818151815260200191508051906020019080838360005b83811015610d18578082015181840152602081019050610cfd565b50505050905090810190601f168015610d455780820380516001836020036101000a031916815260200191505b50935050505060405180910390a150505050565b600033905081600260008373ffffffffffffffffffffffffffffffffffffffff1673ffffffffffffffffffffffffffffffffffffffff168152602001908152602001600020600082015181600001556020820151816001019080519060200190610dc4929190610e79565b50604082015181600201556060820151816003015560808201518160040160006101000a81548160ff0219169083151502179055509050505050565b50805460018160011615610100020316600290046000825580601f10610e265750610e45565b601f016020900490600052602060002090810190610e449190610f07565b5b50565b6040518060a00160405280600081526020016060815260200160008152602001600081526020016000151581525090565b828054600181600116156101000203166002900490600052602060002090601f016020900481019282610eaf5760008555610ef6565b82601f10610ec857805160ff1916838001178555610ef6565b82800160010185558215610ef6579182015b82811115610ef5578251825591602001919060010190610eda565b5b509050610f039190610f07565b5090565b5b80821115610f20576000816000905550600101610f08565b509056fea264697066735822122044ef96cea7b12bc266d73282ed92cd8ce1f3528d32386dc58f284f5889c5aa8364736f6c63430007050033",
  "immutableReferences": {},
  "source": "pragma solidity 0.7.5;\n\nimport \"./Ownable.sol\";\n\ncontract People is Ownable {\n    uint256 balance;\n    struct Person {\n        uint256 id;\n        string name;\n        uint256 age;\n        uint256 height;\n        bool senior;\n    }\n\n    event personCreated(string name, bool senior);\n    event personDeleted(string name, bool senior, address deletedBy);\n\n    mapping(address => Person) people;\n    address[] private creators;\n\n    function createPerson(\n        string memory name,\n        uint256 age,\n        uint256 height\n    ) public payable {\n        require(age < 150);\n        require(msg.value >= 1 ether);\n        balance += msg.value;\n\n        Person memory p;\n        p.name = name;\n        p.age = age;\n        p.height = height;\n        p.senior = age >= 65 ? true : false;\n\n        insertPerson(p);\n        creators.push(msg.sender);\n\n        assert(\n            keccak256(\n                abi.encodePacked(\n                    people[msg.sender].name,\n                    people[msg.sender].age,\n                    people[msg.sender].height,\n                    people[msg.sender].senior\n                )\n            ) == keccak256(abi.encodePacked(p.name, p.age, p.height, p.senior))\n        );\n        emit personCreated(p.name, p.senior);\n    }\n\n    function getCreator(uint256 idx) public view onlyOwner returns (address) {\n        return creators[idx];\n    }\n\n    function deletePerson(address person) public onlyOwner() {\n        bool senior = people[person].senior;\n        string memory name = people[person].name;\n\n        delete people[person];\n        assert(people[person].age == 0);\n        emit personDeleted(name, senior, owner);\n    }\n\n    function insertPerson(Person memory newP) private {\n        address person = msg.sender;\n        people[person] = newP;\n    }\n\n    function getPerson()\n        public\n        view\n        returns (\n            string memory name,\n            uint256 age,\n            uint256 height,\n            bool senior\n        )\n    {\n        return (\n            people[msg.sender].name,\n            people[msg.sender].age,\n            people[msg.sender].height,\n            people[msg.sender].senior\n        );\n    }\n\n    function withdrawlAll() public onlyOwner returns (uint256) {\n        uint256 amount = balance;\n        balance = 0;\n        msg.sender.transfer(amount);\n        return amount;\n    }\n}\n",
  "sourcePath": "/Users/julian/Courses/IvanOnTech/Eth2/People/contracts/People.sol",
  "compiler": {
    "name": "solc",
    "version": "0.7.5+commit.eb77ed08.Emscripten.clang"
  },
  "schemaVersion": "3.3.3",
  "updatedAt": "2021-01-12T21:14:01.459Z",
  "networkType": "ethereum",
  "devdoc": {
    "kind": "dev",
    "methods": {},
    "version": 1
  },
  "userdoc": {
    "kind": "user",
    "methods": {},
    "version": 1
  }
}